:100000000C945B000C9483000C9483000C9483008C
:100010000C9483000C9483000C9483000C94830054
:100020000C9483000C9483000C9483000C94830044
:100030000C9483000C9483000C9483000C94830034
:100040000C94B1020C9483000C9432050C94830040
:100050000C9483000C9483000C9483000C94830014
:100060000C9483000C948300000024272A000025B0
:10007000282B000023262904040404040404040299
:100080000202020202030303030303010204081035
:100090002040800102040810200102040810200002
:1000A0000000070002010000030406000000000039
:1000B00000000000090111241FBECFEFD4E0DEBF15
:1000C000CDBF11E0A0E0B1E0E6EBFBE002C005909F
:1000D0000D92A231B107D9F711E0A2E1B1E001C060
:1000E0001D92AA3AB107E1F710E0C6EBD0E004C0D8
:1000F0002297FE010E94D505C43BD107C9F70E9493
:1001000002010C94D9050C940000809104010E9416
:100110006C049C0190931901809318018091160141
:1001200090911701892B09F046C02130310509F063
:1001300042C0809106010E946C042091140130910C
:100140001501892B19F42150304002C02F5F3F4F19
:1001500030931501209314018091140190911501A1
:100160008F3F910529F024F010921501109214018F
:100170006091140170911501809108010E94AF03F4
:1001800060911401709115018CE191E00E94790257
:1001900080911A0190911B0162E370E00E946F054B
:1001A000892B19F060E071E002C062E071E08CE13F
:1001B00091E00E9432018091180190911901909371
:1001C000170180931601089561E0809108010E9453
:1001D000030460E0809104010E94030460E08091C8
:1001E00006010E94030440E855E260E070E08CE103
:1001F00091E00E941D016FEF70E0809108010E9464
:10020000AF0308950E9454030E94E4000E948500F9
:10021000FDCF8EE091E090931D0180931C01089525
:10022000862F0E94F10408950E94290508950E94D6
:100230000A0508950E94F9040895CB01BA010E94AD
:10024000B8040895DC01ED91FC910190F081E02D5E
:1002500009950895DC01ED91FC910190F081E02D6C
:10026000099508950F931F93CF93DF938C01EB01B2
:1002700009C02196D801ED91FC910190F081E02D0B
:10028000C801099568816623A1F7DF91CF911F917D
:100290000F9108950F931F938C01DC01ED91FC9158
:1002A0000190F081E02D6DE00995D801ED91FC9170
:1002B0000190F081E02D6AE0C80109951F910F912E
:1002C00008950F931F938C01DC01ED91FC91019037
:1002D000F081E02D0995C8010E944A011F910F91FC
:1002E00008950F931F938C010E943201C8010E9450
:1002F0004A011F910F9108950F931F938C01DC0108
:10030000ED91FC910190F081E02D0995C8010E94CA
:100310004A011F910F9108952F923F924F925F9241
:100320006F927F928F929F92AF92BF92CF92DF9205
:10033000EF92FF920F931F93DF93CF93CDB7DEB76A
:10034000A0970FB6F894DEBF0FBECDBF1C016A01A7
:100350007B01411551056105710549F4DC01ED9101
:10036000FC910190F081E02D60E3099554C0882450
:1003700099245401422E55246624772401E010E08C
:100380000C0F1D1F080D191DC701B601A301920115
:100390000E948205F80160830894811C911CA11CB5
:1003A000B11CC701B601A30192010E948205C901D7
:1003B000DA016C017D01C114D104E104F104F1F60C
:1003C00081E0E82EF12CEC0EFD1EE80CF91C3E013C
:1003D0000894611C711CD501C4010197A109B109E0
:1003E0006C01C818D90814C0F601EE0DFF1D60811C
:1003F0006A3010F4605D01C0695CD101ED91FC913F
:100400000190F081E02DC10109950894E108F108FF
:100410006E147F0449F7A0960FB6F894DEBF0FBEA6
:10042000CDBFCF91DF911F910F91FF90EF90DF90A3
:10043000CF90BF90AF909F908F907F906F905F9084
:100440004F903F902F9008952AE00E948C010895CC
:100450000F931F938C010E942402C8010E944A013D
:100460001F910F910895AB0160E070E00E9424029B
:1004700008950F931F938C01AB0160E070E00E9420
:100480002402C8010E944A011F910F910895EF9222
:10049000FF920F931F93CF93DF93EC017A018B01AF
:1004A00077FF0FC0E881F9810190F081E02D6DE2C6
:1004B000099510950095F094E094E11CF11C011D44
:1004C000111D2AE0B801A701CE010E948C01DF9125
:1004D000CF911F910F91FF90EF9008950F931F936D
:1004E0008C010E944702C8010E944A011F910F918E
:1004F0000895AB01662757FD6095762F0E9447024D
:1005000008950F931F938C01AB01662757FD6095EB
:10051000762F0E944702C8010E944A011F910F9145
:100520000895DC012115310541F4ED91FC91019014
:10053000F081E02D642F099508952A30310519F4D2
:100540000E94470208950E948C0108950F931F9303
:100550008C010E949102C8010E944A011F910F91D3
:1005600008951F920F920FB60F9211242F938F931D
:100570009F93AF93BF9380911E0190911F01A09113
:100580002001B09121018050904CAF4FBF4F80931C
:100590001E0190931F01A0932001B093210127C059
:1005A00080911E0190911F01A0912001B091210125
:1005B00080589E43A040B04080931E0190931F013D
:1005C000A0932001B09321018091220190912301F9
:1005D000A0912401B09125010196A11DB11D809328
:1005E000220190932301A0932401B09325018091CF
:1005F0001E0190911F01A0912001B091210181580D
:100600009E43A040B04060F6BF91AF919F918F9103
:100610002F910F900FBE0F901F9018958FB7F894E1
:100620002091220130912301409124015091250114
:100630008FBFB901CA010895EF92FF920F931F93E4
:100640007B018C018FB7F8944091220150912301D6
:1006500060912401709125018FBF2FB7F89480918C
:10066000220190912301A0912401B09125012FBF77
:10067000841B950BA60BB70B8E159F05A007B10722
:1006800060F31F910F91FF90EF900895019759F03B
:10069000FC01EE0FFF1FEE0FFF1F32978FB7F8948C
:1006A0003197F1F78FBF0895789484B5826084BD47
:1006B00084B5816084BD85B5826085BD85B5816066
:1006C00085BDEEE6F0E0808181608083E1E8F0E0C6
:1006D000808182608083808181608083E0E8F0E0B7
:1006E000808181608083E1EBF0E0808184608083A1
:1006F000E0EBF0E0808181608083EAE7F0E08081D8
:100700008460808380818260808380818160808337
:100710008081806880831092C100089580931001C9
:1007200008958F70909110019295990F990F907C78
:10073000982B90937C0080917A00806480937A005B
:1007400080917A0086FDFCCF20917800409179005D
:10075000942F80E030E0282B392BC90108951F9396
:10076000CF93DF93182FEB0161E00E940304E12F88
:10077000F0E0E156FF4F8491833051F48091800086
:10078000806880938000D0938900C093880037C030
:10079000843051F480918000806280938000D093F7
:1007A0008B00C0938A002BC0813029F484B5806807
:1007B00084BDC7BD24C0823029F484B5806284BD65
:1007C000C8BD1DC0863041F48091B0008068809320
:1007D000B000C093B30013C0873041F48091B000E3
:1007E00080628093B000C093B40009C0C038D105C6
:1007F00014F460E001C061E0812F0E942104DF91C8
:10080000CF911F910895282F30E0C90185579F4F40
:10081000FC01949129583F4FF9018491882381F07C
:10082000E82FF0E0E859FF4FE491F0E0662329F467
:10083000808190958923808308958081892B80838E
:100840000895482F50E0CA0181569F4FFC01249122
:10085000CA0185579F4FFC01949149585F4FFA0197
:1008600034913323C1F1222331F1233021F48091DB
:1008700080008F7705C0243031F4809180008F7D17
:100880008093800018C0213019F484B58F7704C09C
:10089000223021F484B58F7D84BD0DC0263021F433
:1008A0008091B0008F7705C0273029F48091B00087
:1008B0008F7D8093B000E32FF0E0E359FF4FE49188
:1008C000F0E0662329F48081909589238083089540
:1008D0008081892B80830895482F50E0CA0181567A
:1008E0009F4FFC012491CA0185579F4FFC019491B1
:1008F00049585F4FFA013491332319F420E030E076
:1009000035C0222331F1233021F4809180008F778C
:1009100005C0243031F4809180008F7D8093800069
:1009200018C0213019F484B58F7704C0223021F427
:1009300084B58F7D84BD0DC0263021F48091B00038
:100940008F7705C0273029F48091B0008F7D809388
:10095000B000E32FF0E0EE58FF4FE491F0E080812B
:1009600020E030E0892311F021E030E0C901089552
:10097000EF92FF920F931F937B018C0122E030E0F6
:1009800040E050E00E94A405205C3D4B404F5F4F8B
:10099000CA01B901A80197010E94A405C901DA01A1
:1009A0000197A109B109292F3A2F4B2F552747FD50
:1009B0005A950196A11DB11D2093C50081508093C9
:1009C000C400E1ECF0E080818061808380818860F8
:1009D00080838081806880831F910F91FF90EF90CA
:1009E0000895982F8091C00085FFFCCF9093C6009A
:1009F0000895809126019091270180589F4F209162
:100A0000280130912901821B930B60E870E00E945D
:100A10006F05089540912801509129018091260188
:100A2000909127018417950719F42FEF3FEF0FC01E
:100A3000FA01E65DFE4F2081CA01019660E870E090
:100A40000E946F05909329018093280130E0C9012D
:100A50000895809128019091290190932701809316
:100A6000260108951F920F920FB60F9211242F9313
:100A70003F934F935F936F937F938F939F93AF9326
:100A8000BF93EF93FF934091C600E0912601F09150
:100A90002701CF01019660E870E00E946F059C017C
:100AA00080912801909129012817390739F0E65DD6
:100AB000FE4F40833093270120932601FF91EF9151
:100AC000BF91AF919F918F917F916F915F914F9166
:100AD0003F912F910F900FBE0F901F90189597FB8D
:100AE000092E07260AD077FD04D049D006D0002071
:100AF0001AF4709561957F4F0895F6F7909581955A
:100B00009F4F0895A1E21A2EAA1BBB1BFD010DC029
:100B1000AA1FBB1FEE1FFF1FA217B307E407F507AD
:100B200020F0A21BB30BE40BF50B661F771F881F89
:100B3000991F1A9469F760957095809590959B011F
:100B4000AC01BD01CF01089597FB092E05260ED0FB
:100B500057FD04D0D7DF0AD0001C38F450954095DB
:100B6000309521953F4F4F4F5F4F0895F6F7909581
:100B70008095709561957F4F8F4F9F4F0895AA1B69
:100B8000BB1B51E107C0AA1FBB1FA617B70710F078
:100B9000A61BB70B881F991F5A95A9F780959095AA
:100BA000BC01CD010895EE0FFF1F0590F491E02DDB
:060BB0000994F894FFCF48
:100BB6000A002D00030004000B00000000001001D5
:020BC60001002C
:00000001FF
