:10000000A4290F3982073F342F3427342334213475
:100010002034303438343C343E34053418341A3407
:100020000C34023412340F39820703340534093496
:10003000113421342034303438343C3406344C34D8
:100040004C344C344C344C344C34970B2B286430A7
:10005000970044228F00061FC229861F292A851176
:100060000E0882074C2858286A2878288B288B2865
:100070008B289728A028B028C528CA28CF28DD2893
:10008000E528F0284A295529552955296129672944
:100090007729772982299129013093009801861EBA
:1000A0008528061E622801308E000511552325285B
:1000B0000130861E8528061E62288E00980B252892
:1000C00021234C2805150F08900002308E0085145E
:1000D00000002B28861E921485158514900B682825
:1000E000851003308E000F089000930D93131310AA
:1000F0008510861E9214900B252812101918921044
:1001000092188528861E8528AC2805150F089000B2
:1001100004308E008514061E12148515900B942849
:100120008E0A0F0890002B28000000002B28851055
:1001300008308E000F089000930D93131314252898
:100140008510061E1214900B2528921019181210F3
:1001500012186228061E62280F08900009308E00CF
:10016000861E8528061E6228900B252805110A3058
:100170008E000F08900013089400921B752B121923
:10018000FC2255230130930025280B30061E6228DF
:100190008E0025280C30861E85288E0025280A30E2
:1001A0008E00900B252882309300121D4C280F08DA
:1001B00090003C3096000D308E00861EEC28061E06
:1001C000EC28900B25288E0A25280F0890000D306A
:1001D0008E00930A960B252800308E001308C02845
:1001E000F0229300931F02299313131FFB2813136C
:1001F00082298E00252805110F089000130896000B
:100200001030F9280515930803191B2999182D2971
:100210005F30130203191B296A30130203192629C0
:100220005A301302031924292D29121E3E30121AA6
:10023000323091002528991D1F29980B1529191E68
:100240002229152992114C280E23822999161A0861
:10025000191D012019191320930006309500131B56
:100260004329931A4129131A3F2993193D29131938
:100270003B299503930D9503930D9503930D9503DA
:10028000930D9503930D0F0890001330931A1130BE
:100290008E002528861E2229061E2229900B25283D
:1002A0000F089000960B25288229851400008515DB
:1002B000900B5E298E0A0F0890002B28000000008A
:1002C0002B2885100F08900015308E0025288510EA
:1002D000861E2229061E22290000900B2B28950B32
:1002E00075290F0890001630F928930D4329900BBB
:1002F0007D298E0A0F0890002528861E2229061EB9
:1003000022292528991E8829991219171B0828299E
:10031000191F8D2919131C082829921D1B290F301C
:10032000F9280515861EA2298515061EA229061F75
:10033000A229861FA2298514900B9F29980B2B2890
:1003400085104C289213A0298B13031383160514D0
:1003500085100511851106110516811306168616DE
:100360008617061783128510051185118E019201DB
:10037000900140308F009701970A99019A019B01E3
:100380009C0125288510980112190E2A12122D237E
:10039000061BDB29861F1B2A980BC729EE30382342
:1003A000061BD629861F1B2A2123D0293E30910007
:1003B00012159211132A3E30910093009215F022EB
:1003C0000319E7295F3C0319EB299219DF29130868
:1003D00091009215092A13089100921598012D2376
:1003E000061FF729861FF729980BEF29092AF02203
:1003F0000319FF295F3C0319FF299219F729980176
:100400002D23980B042AD829061F002A861F002AAC
:10041000EE290F308E00921598012F28E622A83081
:100420003823132A2123061F122A861F122A00307E
:100430008E0098012F28991219131913921B262A3E
:100440009217EB303823A0303823132A9213EA3066
:10045000242A8510980112190E2A12162D23861BA4
:10046000422A061F1B2A980B2E2AEE303823861BA1
:100470003D2A061F1B2A2123372A323091001215EC
:100480009211132A3230DC298B13051083160510C4
:1004900000000514831205180A3405180B340518DA
:1004A0000C3405180C3405180D3405180E340518D5
:1004B00010340518103405181134051811340518B6
:1004C000123405181234051813340518133405189E
:1004D0001434051814340518153405181634051885
:1004E000163405181734051818340518183405186B
:1004F000193405181A3405181B3405181C3405184E
:100500001D3405181E3405181E3405181F3405182F
:100510002034051820340518213405182234051814
:1005200023340518243405182434051825340518F7
:1005300026340518273405182834051829340518D9
:100540002A3405182C3405182D3405182F340518B5
:10055000303405183234051833340518353405188D
:1005600037340518383405183B3405183E3405185F
:100570004034051842340518463405184D34051822
:1005800055340518603405186E3405188034051884
:100590009A340518C034FF3489008B13831608156C
:1005A00055308900AA30890088149301881CDA2A02
:1005B000930BD62A081183128B17080089008B131E
:1005C0008316081483128B1708080800931FEA2A61
:1005D0001308FC220030FC221211013093000800A5
:1005E00011080319F52A910BF62A9211121EDE2A20
:1005F0001D3E840000080800121D08008800121A21
:10060000082B1108CC22910B080012119216080039
:100610001D301107840008088000032B9C0A0A3053
:100620001C02031D08009C019B0A0A301B02031DCB
:1006300008009B019A0A0A301A02031D08009A0159
:100640000800851085110511061108308B00630024
:1006500000008B0144228F00080000000000000011
:100660000000000000000000000000000000080082
:10067000121393000830950028309600931B06153E
:10068000931F0611931B8515312385113623061EF2
:10069000512B861E512B960B422B930D950B3C2B09
:1006A00012170611013093000800921E5D2BAE3028
:1006B000382380303823121B921208000A3093002E
:1006C0001303012014020319722B930B602B0A30C1
:1006D00093001303132014020319722B930B692B3D
:1006E00083140034130383100800991E7E2B5E23AD
:1006F0008318E12B991219179A002528191F872BA7
:100700005E238318E12B191399179B002528991F45
:100710008F2B5E238318E12B99139C00E42B05306B
:100720001402031D952B1914E42B18301402031D19
:100730009B2B1910E42B1A301402031DA22B19163F
:100740009911E42B0C301402031DA82B9213E42BF7
:1007500002301402031DB42B991DB12B99111912EB
:10076000E42B99151912E42B14301402031DBA2B33
:100770009914E42B07301402031DC02B9910E42BAD
:1007800006301402031DC82B9916E8303823E42BD9
:100790001D301402031DCE2B1915E42B0830140252
:1007A000031DD42B1911E42B03301402031DDD2B80
:1007B0004130980019308E00E42BAE303823EA30F7
:0E07C000E52BE8303823DD2BBA30382325280E
:02400E00F33F7E
:0A42060000006A0032008500060087
:10421000060020008500030008000A0085000A004F
:1042200009005F002A00120010001B00210014008A
:104230000C00880002000C0085000300080002004A
:1042400003005F000D008A000200080016008500D0
:10425000120010001B00210014000C008500020059
:104260000C005F005A00230038005F006A008800DD
:104270006A0088000A00060085000A000900640040
:00000001FF
