:020000020000FC
:040000003DC081C0BE
:100016004F93579878944CB14FB62F931F932091D6
:10002600E4001091E500133018F0F1F42D36E0F4F9
:10003600AF93BF93A091E200B091E3004D93B4302B
:1000460028F011F4A73510F0A8EEB0E0A093E20076
:10005600B093E30041E0240F40E0141F2093E40036
:100066001093E500BF91AF911F912F914F914FBE15
:10007600F894579A18954FEB4DBFBB27DD27FF27FE
:1000860048EE4093E0004093E20040E04093E100F8
:100096004093E300D093E400D093E50011241ED1F1
:1000A6002FD1CAD04CE348BB4FEF45BB4BEF42BB09
:1000B600442740BD4FBB42E04BB94CE049B9539A87
:1000C600549A579A4FE045BF40E44BBF7894B09B93
:1000D60005C0023069F0033041F0F9CF4FEFB09917
:1000E600F6CF4A95E1F7A8D0F2CF3ED404E0EFCFA1
:1000F600C0E66C2D1BD19ED129D110D204E0E7CFEA
:100106005FB64F933F9343E032E0B09BFECFB19B87
:10011600FECFB19B05C043E03A95000099F0F9CFB8
:1001260032E04A950000A9F707C06F90AF911F9182
:100136002F91CF916F91522D3F914F915FBE80E4E9
:100146008ABF1895252E86B36F93CF9356E06EE03F
:10015600CEE676B37370A1F07795881F5A95C9F7E6
:10016600000076B3737061F07795881F57E0899326
:1001760086B3837029F05A9500006A9551F7D9CF56
:10018600C137B8F240916E0030916F0081F442376A
:1001960021F43F1561F491E0CCCF403521F43E15B2
:1001A60031F493E0C6CF4E3411F43F1551F0483286
:1001B60011F0463321F4913081F09330B1F090E0A4
:1001C600B8CF2F931F93AF936F920430B9F43FD0FB
:1001D6009630B1F092E003E0A8CF2F931F93AF9330
:1001E6006F9283D012D002E0A0CF2F931F93AF93CC
:1001F6006F92023019F079D0002797CF88D095CF2B
:10020600F0907C00E0907D0090CF573029F0539518
:10021600881F5A95E9F789936C2F6D56C62ECEE640
:10022600A1E6BF93BB2749914D936A95E1F7BF912C
:1002360064E56093600008954AEAE42EF42E992757
:1002460099248824002733243092C80008956D2D00
:10025600CFEC30E0162F23E07991C198C09AB99A75
:10026600B89A48B357E00000779508F0422748BB94
:100276005A95C9F770FF42271A95799148BB91F7AD
:10028600582D503041F0779508F0422748BB0000C2
:100296005A95C9F7788100004C7F48BB55E05A95BE
:1002A600F1F7C09AC09AB998B898C0980895409145
:1002B600D0004B3443EC09F04BE44093D000089552
:1002C60043EC4093D00040E84093CF00F0DF40E09D
:1002D6004093D1004093D20064E0089540E84093F3
:1002E600CC0042ED4093CD000895CF935F938F925B
:1002F600CCEC62E08824ADDF8F905F91CF910895BA
:1003060040E84093C9004AE54093CA0008958F9299
:10031600C9EC62E088249DDF8F90089540E8409301
:10032600CF004EE14093D00062E00895CF936F93E3
:100336006C0F4FEF47954881242F2795242720954A
:100346002993C617B9F76F91CF910895112777248E
:100356007A94CF936F93312F48E0340F6A95E9F77B
:1003660026E06F916F936C0F63956395488158E013
:10037600479508F027E02A95A1F4371526E088F47A
:100386003A95732E513011F459E0C3955A9590FA67
:100396001EF037D01A9502C01BD013956F91CF91DE
:1003A600D8CF3A9521F05A9519F7C395DFCF6F91BB
:1003B600CF9190FA3EF0103051F06A95185F38F4FC
:1003C6006A950895812E185010F06395812E089530
:1003D600452F59E0541B3881331F2FEF220F5A95B2
:1003E600E9F732232095269548814223342B48810C
:1003F600441F3993C61301C008953881331F3993BA
:10040600F9CF452F59E0541B4C2F4395C62F3A91EF
:1004160037953883C413FBCF3A9137952FEF5A950A
:1004260011F0220FFCCF3223209548814223342B32
:1004360038830895CF936F93C0E603D06F91CF9121
:1004460008956C0F488138E04795221F3A95E1F7E9
:100456002993C617B9F70895CF936F93CFEC0AD0B7
:100466004095309539934883CA9562E0EADF6F91EB
:10047600CF9108956C0FC3954991433C11F04B34CD
:10048600A9F44FEF3FEF299118E037FB50F95227B7
:10049600441F331F4E7F2695579520F450E8352785
:1004A60055E045271A9589F7C61769F70895C8953F
:1004B600099231966A95D9F72CC0C895099233FAF4
:1004C60036F43196C8950992E89433F802C00024B0
:1004D60009923196625089F71CC0008009923196C4
:1004E6006A95D9F716C0EEBBFFBBE09A0DB209922A
:1004F60031966A95C1F70DC040E84093CF0068E099
:10050600C1ED332009F4D3CF32FCD7CF30FCE5CF91
:10051600EACF37FC3324CBDEC0ED089506D09394A2
:10052600CFEC14DFD62E992408953324409162002F
:1005360030916300407609F487C1FF27313009F412
:1005460053C0323009F451C0333009F44FC034304F
:1005560009F45EC0353009F469C0363009F478C054
:10056600373009F483C0383009F493C0393009F4C0
:1005760098C03A3009F4A5C03B3009F4AAC03C3013
:1005860009F4A8C03D3009F4ADC03E3009F4B5C049
:100596003F3009F4F9C0303109F40FC1313109F4A3
:1005A60014C1323109F42FC1333109F43FC134315A
:1005B60009F443C1343609F407C0353609F412C0CC
:1005C600363609F410C0ACC1409164003091650024
:1005D60000000000000000000000E42FF32F339419
:1005E6004FEF75C12FC151C12DC12CC1309167008C
:1005F600409164004C7330FD47BB4091650031FD6E
:1006060044BB40916600487F426032FD41BB1AC13F
:1006160047B34093C00044B34093C10041B34093F5
:10062600C200E0EC41E8342E43E051C1309167004E
:10063600409164004C7330FD48BB4091650031FD2C
:1006460045BB40916600487F436032FD42BBFAC01D
:1006560048B34093C00045B34093C10042B34093B2
:10066600C200E0EC41E8342E43E031C146B340938A
:10067600C00043B34093C10040B34093C200E0ECD6
:1006860041E8342E43E023C1E0E041E8342E41E066
:100696001EC1E0916400F091650042E0342E40E80E
:1006A60016C1E0916400F091650000906600EEBB13
:1006B600FFBB0DBAF894E29A7894E19AE199FECFDD
:1006C600C1C0409164004CB9539BBCC05E9BFCCF3B
:1006D600B9C0DBC040916400309166003F7730BD01
:1006E60049B9B0C049B14093C00040B54093C1007C
:1006F600E0EC41E8342E42E0EAC057980000409111
:10070600E4003091E500579A403019F4303009F48E
:1007160099C06090680022E0420F20E0321F30301E
:1007260011F4641610F4462D30E04250304020910A
:10073600E0001091E100240F131F143048F011F46B
:10074600273530F027551440421B310B28EE10E0B8
:10075600E091E000F091E1002093E0001093E100C9
:100766003297579833942091E4001091E500241BAA
:10077600130B2093E4001093E500579A21931083FE
:10078600319743954395A3C040916400433019F0D7
:100796003AB13B7F3AB901D055C006D040FB31F99A
:1007A60041FB32F907D00895F89430B530B5789406
:1007B60000000895306830BD0895F6DF442731FB08
:1007C60040F932FB41F9042E5FCF4091640043307B
:1007D60078F4EADF3F7C403031F03062423019F085
:1007E6003061413079F4E6DF3AB13B7F3AB92AC04D
:1007F6003AB140FB30F934603AB943E0CEDF3F7C92
:10080600D9DF20C042C03AB132FD0AC0CDDF307315
:10081600303341E049F0303242E031F040E004C08C
:1008260030FB43E00EF044E0042E2ECF40916400EE
:10083600BBDF40FB33F9BEDF05C0B6DF002433FB68
:1008460000F822CF41E022C03030F9F03130E1F03B
:100856003330D1F0353079F0363049F1373029F17F
:100866003830B9F0393061F03A30D9F03B3061F0C8
:100876003C30D9F055C03091640054D096E050C059
:10088600409164004093C8004BC042E0F9E0EEEBB3
:100896001EC04091C8004423A9F241E0F9E0E5EB0F
:1008A60016C0F9E0ECEB41E012C038DD0895309156
:1008B6006500313029F0323039F03330D9F00895FF
:1008C600F9E0EEE942E103C0F9E0E0EB49E1A0908E
:1008D6006800A41608F0A42E4A2DBB24477009F020
:1008E600B3944A2D469546954695B40E43EC4093EF
:1008F600D00043C03CE0332E30916400303059F0D4
:10090600323029F008F6F9E0EEEC42E5E0CFF9E006
:10091600E8EF4EE4DCCF3324F9E0EAEC44E0D7CF4D
:10092600CFDC0895232F132F3F3709F43FEB1770C1
:10093600173019F40894221F277F20937D0008D0D2
:1009460060927C0030917D0003D060927D00089516
:10095600662421E018E0462D379508F04227479592
:10096600661C1A95C1F7089502D0D9DD08954B2D5E
:10097600413011F4A8DC0895BA943A2D385018E0A5
:1009860018F41A2DBB24B394A32EB6DD62E0610FD2
:1009960063DD639563950895120101010000000867
:1009A600EB03FF2103000102000109021900010106
:1009B60000801909040000010000000007058100FD
:1009C60008000A00040309045203496E672E2049F1
:1009D600676F72204365736B6F20687474703A2F6B
:1009E6002F7777772E6365736B6F2E686F73742E10
:1009F600736B4E034156523330393A2055534220D9
:100A0600746F20554152542070726F746F636F6C0F
:0A0A160020636F6E766572746572DE
:00000001FF
