:100000000C945B000C9483000C9483000C9483008C
:100010000C9483000C9483000C9483000C94830054
:100020000C9483000C9483000C9483000C94830044
:100030000C9483000C9483000C9483000C94830034
:100040000C9459020C9483000C9483000C9483004C
:100050000C9483000C9483000C9483000C94830014
:100060000C9483000C948300000024272A000025B0
:10007000282B000023262904040404040404040299
:100080000202020202030303030303010204081035
:100090002040800102040810200102040810200002
:1000A0000000070002010000030406000000000039
:1000B00000000000040211241FBECFEFD4E0DEBF19
:1000C000CDBF11E0A0E0B1E0E2EBF8E002C00590A6
:1000D0000D92A631B107D9F711E0A6E1B1E001C058
:1000E0001D92A333B107E1F710E0C6EBD0E004C0E6
:1000F0002297FE010E943104C43BD107C9F70E9438
:1001000054020C9457040C940000EF92FF920F934A
:100110001F93CF93DF93EC01F62EE42E81E0481776
:1001200021F460E08F810E9454036E2D8C810E9427
:10013000540361E08A810E94540300E010E082E3EE
:1001400090E00E94EE0260E08A810E9454036F2DCD
:10015000661F6627661F8B810E945403FF0C82E393
:1001600090E00E94EE0261E08A810E9454030F5FDA
:100170001F4F0830110519F704C08AE090E00E9473
:10018000EE028E818823C9F381E0E81621F461E054
:100190008F810E945403DF91CF911F910F91FF90A7
:1001A000EF900895605340E00E948500089541E07B
:1001B0000E94850088EE93E00E94EE020895606E32
:1001C0000E94D700089560EE0E94D700089560E273
:1001D0000E94D7000895EF92FF920F931F93CF9341
:1001E000DF937C01FB0101900020E9F73197E61BCA
:1001F000F70B8B010E0F1F1FEF010BC0D701ED9105
:10020000FC910190F081E02DD8016C91C701099516
:100210002197015010401C161D0684F3DF91CF91E9
:100220001F910F91FF90EF900895AF92BF92CF92E0
:10023000EF920F935C01862F64E071E0F50171830A
:1002400060838283438324830583E682C78261E0DF
:100250000E94360361E0F50183810E94360361E06C
:10026000F50184810E94360361E0F50185810E94D9
:10027000360361E0F50187810E94360360E0F501F5
:1002800086810E94360361E0F50185810E94540356
:1002900060E0F50185810E94540384E690E00E94AD
:1002A000EE0261E0F50185810E94540361E0F501F1
:1002B00087810E94540360E0F50183810E9454030A
:1002C00061E0F50184810E94540361E0F5018281BF
:1002D0000E94540384E690E00E94EE0260E4C501AF
:1002E0000E94D70060E3C5010E94D70068E1C50104
:1002F0000E94D70061E1C5010E94D70065E1C501F8
:100300000E94D70060E2C5010E94D7000F91EF90D4
:10031000CF90BF90AF900895AF92BF92CF92EF92DF
:100320000F935C01862F64E071E0F50171836083B7
:100330008283438324830583E682C78261E00E942F
:10034000360361E0F50183810E94360361E0F50127
:1003500084810E94360361E0F50185810E943603A5
:1003600061E0F50187810E94360360E0F501868136
:100370000E94360361E0F50185810E94540360E02C
:10038000F50185810E94540384E690E00E94EE020C
:1003900061E0F50185810E94540361E0F5018781E8
:1003A0000E94540360E0F50183810E94540361E0E0
:1003B000F50184810E94540361E0F50182810E946D
:1003C000540384E690E00E94EE0260E4C5010E94BE
:1003D000D70060E3C5010E94D70068E1C5010E9413
:1003E000D70061E1C5010E94D70065E1C5010E9407
:1003F000D70060E2C5010E94D7000F91EF90CF9027
:10040000BF90AF9008950895CF92EF920F9397E029
:10041000C92E86E0E82E05E024E043E062E086E1B4
:1004200091E00E9415010F91EF90CF900895EF9207
:10043000FF920F931F930EE111E02AE030E0A80134
:1004400060E472EE81E090E00E94EB0360E087E000
:100450000E94540326E1E22E21E0F22EB801C701EA
:100460000E94EB0061E087E00E94540368EE73E0B5
:1004700080E090E00E94C40260E087E00E945403A4
:1004800068E071E0C7010E94EB0061E087E00E9434
:10049000540368EE73E080E090E00E94C4021F9174
:1004A0000F91FF90EF9008950E94FC020E941702A6
:1004B000FDCF1F920F920FB60F9211242F938F939F
:1004C0009F93AF93BF9380912B0190912C01A091AA
:1004D0002D01B0912E018050904CAF4FBF4F8093B3
:1004E0002B0190932C01A0932D01B0932E0127C0D6
:1004F00080912B0190912C01A0912D01B0912E01A2
:1005000080589E43A040B04080932B0190932C01D3
:10051000A0932D01B0932E0180912F019091300175
:10052000A0913101B09132010196A11DB11D8093BE
:100530002F0190933001A0933101B093320180914B
:100540002B0190912C01A0912D01B0912E01815889
:100550009E43A040B04060F6BF91AF919F918F91B4
:100560002F910F900FBE0F901F9018958FB7F89492
:1005700020912F0130913001409131015091320191
:100580008FBFB901CA010895EF92FF920F931F9395
:100590007B018C018FB7F89440912F01509130016D
:1005A00060913101709132018FBF2FB7F894809123
:1005B0002F0190913001A0913101B09132012FBFF4
:1005C000841B950BA60BB70B8E159F05A007B107D3
:1005D00060F31F910F91FF90EF900895019759F0EC
:1005E000FC01EE0FFF1FEE0FFF1F32978FB7F8943D
:1005F0003197F1F78FBF0895789484B5826084BDF8
:1006000084B5816084BD85B5826085BD85B5816016
:1006100085BDEEE6F0E0808181608083E1E8F0E076
:10062000808182608083808181608083E0E8F0E067
:10063000808181608083E1EBF0E080818460808351
:10064000E0EBF0E0808181608083EAE7F0E0808188
:1006500084608083808182608083808181608083E8
:100660008081806880831092C1000895282F30E037
:10067000C90185579F4FFC01949129583F4FF901BB
:100680008491882381F0E82FF0E0E859FF4FE4914E
:10069000F0E0662329F48081909589238083089572
:1006A0008081892B80830895482F50E0CA018156AC
:1006B0009F4FFC012491CA0185579F4FFC019491E3
:1006C00049585F4FFA0134913323C1F1222331F1AC
:1006D000233021F4809180008F7705C0243031F4DD
:1006E000809180008F7D8093800018C0213019F4A4
:1006F00084B58F7704C0223021F484B58F7D84BD0A
:100700000DC0263021F48091B0008F7705C02730CE
:1007100029F48091B0008F7D8093B000E32FF0E04A
:10072000E359FF4FE491F0E0662329F4808190952E
:100730008923808308958081892B80830895482FA1
:1007400050E0CA0181569F4FFC012491CA01855790
:100750009F4FFC01949149585F4FFA013491332324
:1007600019F420E030E035C0222331F1233021F4A8
:10077000809180008F7705C0243031F48091800013
:100780008F7D8093800018C0213019F484B58F7755
:1007900004C0223021F484B58F7D84BD0DC0263085
:1007A00021F48091B0008F7705C0273029F4809123
:1007B000B0008F7D8093B000E32FF0E0EE58FF4F44
:1007C000E491F0E0808120E030E0892311F021E025
:1007D00030E0C9010895FA01CF93FF93EF932230DF
:1007E00044F1253234F5C22FE894CA3049F497FB1E
:1007F0003EF490958095709561957F4F8F4F9F4FF8
:100800002C2F332744275527FF93EF930E9435045D
:10081000EF91FF91605D6A330CF0695D6193B901FE
:10082000CA01605070408040904051F716F4CDE20C
:10083000C19310828F919F91CF910C941F04DC0182
:10084000FC01672F71917723E1F7329704C07C9107
:100850006D9370836291AE17BF07C8F30895EE0FD2
:10086000FF1F0590F491E02D0994A1E21A2EAA1B16
:10087000BB1BFD010DC0AA1FBB1FEE1FFF1FA21750
:10088000B307E407F50720F0A21BB30BE40BF50B4D
:10089000661F771F881F991F1A9469F760957095D6
:1008A000809590959B01AC01BD01CF010895F8940E
:0208B000FFCF78
:1008B20000000000D200EB003031323334353637DD
:0608C2003839303100005E
:00000001FF
