:100000005BC0F6C172C071C070C06FC06EC06DC001
:100010006CC06BC06AC069C068C067C066C065C09C
:1000200064C063C062C00403090422037700770040
:1000300077002E0072006500630075007200730087
:1000400069006F006E002E006A00700010035500FA
:10005000530042002D003200330032001201100123
:1000600002000008C016E105000101020001802520
:100070000000000008090243000201008032090468
:100080000000010202010005240010010424020204
:100090000524060001052401030107058303080068
:1000A000FF09040100020A00000007050102010027
:1000B000000705810208000011241FBECFEDCDBF4F
:1000C00010E0A0E6B0E0E8EEF7E002C005900D9287
:1000D000AC36B107D9F710E0ACE6B0E001C01D9234
:1000E000A13BB107E1F726D37DC38ACF85B78360F3
:1000F00085BF8BB780648BBF8BE480937B0080933C
:10010000A6008AE580937A008093A50008951F9346
:10011000DC01162F8091A50084FF07C08091A60006
:1001200098E889278093A60003C08AE58093A500FC
:10013000912FE7EAF0E08D91819391501916DCF34D
:10014000612F87EA90E050D11C5F1093A5001F91AA
:1001500008951F93DC01162F80917A0084FF07C059
:1001600080917B0098E8892780937B0003C08AE513
:1001700080937A00912FECE7F0E08D91819391507C
:100180001916DCF3612F8CE790E02ED11C5F1093E1
:100190007A001F9108951F93CF93DF9360918B0096
:1001A000635067FDA2C080918800CCE0D0E0C81BFE
:1001B000D109C157DF4F80918700803118F4CE01FB
:1001C000ADD28DC08D3209F08AC0683009F087C089
:1001D00083EC80936F008AE58093600010926C003E
:1001E0008881807621F0CE0182D2282F66C09A8144
:1001F000109278008981882321F41092790022E0FE
:1002000055C0853019F490938C004FC08630B9F5F5
:100210008B81813041F48CE590E090938A0080934B
:10022000890022E128C0823021F4CE014BD2282F50
:1002300022C08330F9F48A81882341F486E290E079
:1002400090938A008093890024E015C0813041F4A6
:100250008AE290E090938A008093890022E20BC0AA
:10026000823041F48CE490E090938A00809389007E
:1002700020E101C020E080E480936C001EC0883043
:1002800021F421E08EE890E013C0893019F49093B6
:100290008E000BC08A3011F421E008C08B3029F4A5
:1002A0008BE480937B008093A60020E088E790E0B9
:1002B00090938A008093890009C02F3F39F4888188
:1002C00087FD2E8180E880936C0006C08F81882393
:1002D00019F48E81821708F0822F8093610080913B
:1002E0008B00181614F410928B008091600084FF2C
:1002F00058C0809161008F3F09F453C0182F893096
:1003000008F018E0811B8093610080916F0098E8ED
:10031000892780936F00112391F180916C0087FFF2
:1003200008C0612F80E790E04DD2182F893098F5F2
:1003300026C02091890030918A0086FF0DC0A0E779
:10034000B0E080E090E0F901E80FF91FE491ED934F
:1003500001961817C1F708C0912FD901E0E7F0E026
:100360008D9181939150E1F71150812F90E01F5FA3
:100370000196820F931F90938A0080938900612FCA
:1003800080E790E031D0612F6C5F6C3041F08FEFEF
:100390008093610004C08FEF809361006EE16093F1
:1003A00060009AE080B38C7031F49150D9F71092CC
:1003B0008C0010928600DF91CF911F910895A82F95
:1003C000B92F80E090E041E050EA60956F5F58F40B
:1003D0002D9138EF82279795879510F084279527E0
:1003E0003F5FC8F3F3CF0895EADF8D939D9308959F
:1003F000CF93CFB7CF93839BFECF839B09C0839BC3
:1004000007C0839B05C0839B03C0839B01C0A6C01C
:10041000DF93C0918800DD27C157DF4F839B02C067
:10042000DF91EBCF2F930F931F9300B32FEF03FBBD
:1004300020F94F933F9310B34FEF012703FB21F9AE
:100440003BE031C04E7F012F10B3216028C0102F38
:100450004D7F2260000000B329C04B7F2460012F34
:10046000000010B32BC010B3477F28602AC04F7E16
:1004700000B320612CC04F7D10B320622FC04F7B92
:1004800000B3206432C0422700B349934FEF00000D
:10049000102713FB20F910B31C70C9F1297F91F2CA
:1004A000012703FB21F900B3237F89F2315058F172
:1004B000102713FB22F910B3277E79F2012703FBE3
:1004C00023F92F7C81F200B3102713FB24F92F7935
:1004D00071F200C010B3012703FB25F92F7359F205
:1004E00000C000B3102713FB26F9223040F200C0F1
:1004F00010B3012703FB27F9243028F64F77206833
:1005000010B30000F9CF10E41ABF00271CC03B5005
:100510003195C31BD04010E41ABF0881033C11F190
:100520000B3401F1209186001981110F1213EDCFC8
:100530004A81441F093659F10D3211F0013E29F765
:100540004F7009F0042F00938D003F914F911F9140
:100550000F912F91DF91CAB7C6FD4DCFCF91CFBF7D
:10056000CF91189500918D00002379F310918B00A5
:100570001123F9F53430FAF130938B0000938700A2
:10058000109188003BE0311B3093880034C000910B
:100590008B00013074F50AE54F7049F4309160002A
:1005A00034FD2BC000936000CFE6D0E02AC043307A
:1005B00049F030917A0034FD20C000937A00CBE7F7
:1005C000D0E01FC03091A50034FD17C00093A500F6
:1005D000C6EAD0E016C0052710E002BB1FC0052701
:1005E00022C0052727C005272CC0052710E002BB25
:1005F00033C04AE503C042ED01C0432FC4E1D0E05F
:1006000032E011B31C60939A02B311BB5F935CE0BC
:1006100020E820FF052702BB279517951C3FD8F639
:1006200020FF0527279502BB17951C3FC0F620FF2A
:1006300005272795179502BB1C3F98F620FF052735
:10064000279517951C3F02BB70F600C0499120FF0B
:10065000052702BB279517951C3F38F620FF052775
:10066000279502BB17951C3F38F520FF05272795D6
:10067000179502BB1C3F10F520FF052727951795FE
:100680001C3F02BBE8F4242F3A9519F6037F5F91D3
:1006900002BB10918C00110FC651D04011F0109385
:1006A000860010E41ABF086011B3137F402F437F08
:1006B00002BB11BB42BB49CF0527D3CF0527D8CFFB
:1006C0000527DDCFFC018381813049F48CE590E082
:1006D00090938A008093890080915C00089585E75B
:1006E00090E090938A008093890083E40895FC0150
:1006F00080818076803281F48181813211F48FEFA4
:100700000895823249F480916D00882329F482E0B3
:1007100080936D0080E0089580E00895FC01E08101
:100720005D9B02C0ECB90895E0936E008FEF80935B
:100730008B0008950F931F93DF93CF930F92CDB744
:10074000DEB783EF82BB8CE081BB11BA8DE489B93F
:1007500012B888E18AB9CADC10926D0078948E01D3
:100760000F5F1F4FA89517DD80918B0087FF07C093
:100770005D9B05C080916E008CB910928B008091BA
:100780007A0084FF07C05F9B05C08CB1898361E05C
:10079000C801DFDC90916D00992321F38091A500C1
:1007A00084FFE0CF923021F468E082E690E003C05D
:1007B00062E08AE690E0ABDC80916D00815080932E
:1007C0006D00D0CF47E050E06EE670E002D087E0E9
:1007D0000895FB01DC0102C005900D92415050408C
:0807E000D8F70895F894FFCF4B
:0C07E8005AFFA1200000000002000300E6
:00000001FF
