:020000040000FA
:10000000A4290F3982073F342F3427342334213475
:100010002034303438343C343E34053418341A3407
:100020000C34023412340F39820703340534093496
:10003000113421342034303438343C3406344C34D8
:100040004C344C344C344C344C34B70B2B28643087
:10005000B7004C22AF00061FCA29861F312A85111E
:100060002E0882074C2858286A2878288B288B2845
:100070008B289728A028B028C528CA28CF28DD2893
:10008000E528F0284A295529552955296129672944
:1000900077297729822991290130B300B801861E7A
:1000A0008528061E62280130AE000511642325282C
:1000B0000130861E8528061E6228AE00B80B252852
:1000C00030234C2805152F08B0000230AE008514EF
:1000D00000002B28861EB21485158514B00B6828E5
:1000E00085100330AE002F08B000B30DB3133310EA
:1000F0008510861EB214B00B252832103918B210A4
:10010000B2188528861E8528AC2805152F08B00052
:100110000430AE008514061E32148515B00B9428E9
:10012000AE0A2F08B0002B28000000002B288510F5
:100130000830AE002F08B000B30DB31333142528D8
:100140008510061E3214B00B2528B2103918321053
:1001500032186228061E62282F08B0000930AE004F
:10016000861E8528061E6228B00B252805110A3038
:10017000AE002F08B0003308B400B21B842B321934
:100180000A2364230130B30025280B30061E6228A1
:10019000AE0025280C30861E8528AE0025280A30A2
:1001A000AE00B00B25288230B300321D4C282F083A
:1001B000B0003C30B6000D30AE00861EEC28061EA6
:1001C000EC28B00B2528AE0A25282F08B0000D30EA
:1001D000AE00B30AB60B25280030AE003308C028A5
:1001E000FD22B300B31F0229B313331FFB283313BF
:1001F0008229AE00252805112F08B0003308B6006B
:100200001030F9280515B30803191B29B9182D2931
:100210005F30330203191B296A3033020319262980
:100220005A303302031924292D29321E7E30321A06
:100230002F30B1002528B91D1F29B80B1529391EEB
:1002400022291529B2114C281D238229B9163A08F2
:10025000391D012039191320B3000630B500331BB6
:100260004329B31A4129331A3F29B3193D293319B8
:100270003B29B503B30DB503B30DB503B30DB503FA
:10028000B30DB503B30D2F08B0001330B31A1130FE
:10029000AE002528861E2229061E2229B00B2528FD
:1002A0002F08B000B60B252882298514000085157B
:1002B000B00B5E29AE0A2F08B0002B28000000000A
:1002C0002B2885102F08B0001530AE00252885108A
:1002D000861E2229061E22290000B00B2B28B50BF2
:1002E00075292F08B0001630F928B30D4329B00B3B
:1002F0007D29AE0A2F08B0002528861E2229061E59
:1003000022292528B91E8829B91239173B0828291E
:10031000391F8D2939133C082829B21D1B290F309C
:10032000F9280515861EA2298515061EA229061F75
:10033000A229861FA2298514B00B9F29B80B2B2850
:1003400085104C28B213A0298B1383168E118312AB
:1003500083169F01831207309F0003138316051431
:1003600085100511851106110512811306168616D2
:10037000861706178312851005118511AE01B2018B
:10038000B0012D30AF00B701B70AB901BA01BB0106
:10039000BC0125288510B8013219162A32123C23D7
:1003A000061BE329861F232AB80BCF29EE304723EB
:1003B000061BDE29861F232A3023D8297E30B10070
:1003C0003215B2111B2A7E30B100B300B215FD22E6
:1003D0000319EF295F3C0319F329B219E729330800
:1003E000B100B215112A3308B100B215B8013C238F
:1003F000061FFF29861FFF29B80BF729112AFD22A6
:100400000319072A5F3C0319072AB219FF29B8010B
:100410003C23B80B0C2AE029061F082A861F082A4D
:10042000F6290F30AE00B215B8012F28F322A830FC
:1004300047231B2A3023061F1A2A861F1A2A003038
:10044000AE00B8012F28B91239133913B21B2E2A66
:10045000B217EB304723A03047231B2AB213EA30F0
:100460002C2A8510B8013219162A32163C23861B15
:100470004A2A061F232AB80B362AEE304723861B4A
:10048000452A061F232A30233F2A2F30B100321578
:10049000B2111B2A2F30E4298B1305108316051087
:1004A00000000514831205180734051807340518D1
:1004B0000834051809340518093405180A340518D4
:1004C0000B3405180B3405180C3405180C340518BA
:1004D0000C3405180D3405180D3405180D340518A5
:1004E0000E3405180E3405180F3405180F3405188E
:1004F0000F34051810340518103405181134051878
:10050000123405181234051813340518143405185C
:100510001434051815340518153405181634051843
:10052000163405181734051817340518183405182B
:100530001834051819340518193405181A34051813
:100540001B3405181B3405181C3405181D340518F8
:100550001E3405181F3405181F34051820340518DB
:1005600021340518233405182434051825340518BA
:100570002634051827340518293405182B34051896
:100580002D3405182E340518313405183634051865
:100590003C340518433405184D3405185A340518F1
:1005A0006C3405188734FF348B1383169B00831239
:1005B0003D0883169A001C158B1355309D00AA30F8
:1005C0009D009C14B3019C1CE72AB30BE32A1C1169
:1005D00083128B1708008B1383169B001C141A08B8
:1005E00083128B170800B31FF72A33080A23003041
:1005F0000A2332110130B300080031080319022B1D
:10060000B10B032BB211321EEB2A8313403E840040
:1006100000080800321D0800BD00321A162B3108F0
:10062000D422B10B08003211B21608004030310755
:10063000831384003D088000112BBC0A0A303C0261
:10064000031D0800BC01BB0A0A303B02031D080061
:10065000BB01BA0A0A303A02031D0800BA010800B9
:10066000851085110511061108308B00630000000C
:100670008B014C22AF0008000000000000000000C9
:10068000000000000000000000000000080032131D
:10069000B3000830B5002830B600B31B0615B31FF1
:1006A0000611B31B8515402385114523061E602BBB
:1006B000861E602BB60B512BB30DB50B4B2B32178F
:1006C00006110130B3000800B21E6C2BAE30472378
:1006D00080304723321BB21208000A30B3003303C4
:1006E000012034020319812BB30B6F2B0A30B300A6
:1006F0003303132034020319812BB30B782B83149B
:100700000034330383100800B91E8D2B6D2383182A
:10071000F02BB9123917BA002528391F962B6D23F3
:100720008318F02B3913B917BB002528B91F9E2B4E
:100730006D238318F02BB913BC00F32B0530340262
:10074000031DA42B3914F32B18303402031DAA2BDC
:100750003910F32B1A303402031DB12B3916B9119D
:10076000F32B0C303402031DB72BB213F32B0230E2
:100770003402031DC32BB91DC02BB9113912F32B41
:10078000B9153912F32B14303402031DC92BB914D7
:10079000F32B07303402031DCF2BB910F32B063097
:1007A0003402031DD72BB916E8304723F32B1D3035
:1007B0003402031DDD2B3915F32B08303402031DE1
:1007C000E32B3911F32B03303402031DEC2B4130A2
:1007D000B8001930AE00F32BAE304723EA30F42BCB
:0C07E000E8304723EC2BBA3047232528D3
:084000000100020003000400AE
:02400E00103F61
:0A42060000006A0032008500060087
:10421000060020008500030008000A0085000A004F
:1042200009005F002A00120010001B00210014008A
:104230000C00880002000C0085000300080002004A
:1042400003005F000D0090000200080016008500CA
:10425000120010001B00210014000C008500020059
:104260000C005F005A00230038005F006A008800DD
:104270006A0088000A00060085000A0009005F0045
:104280002A0085000C000A000F001A0002000A0034
:1042900085000F00030085001A0002000800850059
:1042A0002F0085000C0002000800080002000A0030
:1042B0001600850006000F00030003000900180027
:1042C00085000C0014000F001000850031008500EF
:1042D000120010001B00210014000C0085001B00C0
:1042E000180085000A0002001B0002000D00850076
:1042F0001A0004001600850016000A001D00640064
:00000001FF
